{
  "_format": "hh-sol-artifact-1",
  "contractName": "MockRWAPool",
  "sourceName": "contracts/MockRWAPool.sol",
  "abi": [
    {
      "inputs": [],
      "stateMutability": "nonpayable",
      "type": "constructor"
    },
    {
      "anonymous": false,
      "inputs": [
        {
          "indexed": true,
          "internalType": "address",
          "name": "investor",
          "type": "address"
        },
        {
          "indexed": false,
          "internalType": "uint256",
          "name": "amount",
          "type": "uint256"
        }
      ],
      "name": "Invested",
      "type": "event"
    },
    {
      "anonymous": false,
      "inputs": [
        {
          "indexed": false,
          "internalType": "uint256",
          "name": "totalAmount",
          "type": "uint256"
        },
        {
          "indexed": false,
          "internalType": "uint256",
          "name": "timestamp",
          "type": "uint256"
        }
      ],
      "name": "YieldDistributed",
      "type": "event"
    },
    {
      "inputs": [
        {
          "internalType": "uint256",
          "name": "totalAmount",
          "type": "uint256"
        }
      ],
      "name": "distributeYield",
      "outputs": [],
      "stateMutability": "nonpayable",
      "type": "function"
    },
    {
      "inputs": [],
      "name": "invest",
      "outputs": [],
      "stateMutability": "payable",
      "type": "function"
    },
    {
      "inputs": [],
      "name": "owner",
      "outputs": [
        {
          "internalType": "address",
          "name": "",
          "type": "address"
        }
      ],
      "stateMutability": "view",
      "type": "function"
    },
    {
      "inputs": [],
      "name": "totalInvested",
      "outputs": [
        {
          "internalType": "uint256",
          "name": "",
          "type": "uint256"
        }
      ],
      "stateMutability": "view",
      "type": "function"
    }
  ],
  "bytecode": "0x608060405234801561001057600080fd5b50600080546001600160a01b0319163317905561027d806100326000396000f3fe60806040526004361061003f5760003560e01c80635216aeec146100445780638da5cb5b1461006d578063c8cc5cd8146100a5578063e8b5e51f146100c7575b600080fd5b34801561005057600080fd5b5061005a60015481565b6040519081526020015b60405180910390f35b34801561007957600080fd5b5060005461008d906001600160a01b031681565b6040516001600160a01b039091168152602001610064565b3480156100b157600080fd5b506100c56100c0366004610207565b6100cf565b005b6100c5610169565b6000546001600160a01b0316331461012e5760405162461bcd60e51b815260206004820152601f60248201527f4f6e6c79206f776e65722063616e2064697374726962757465207969656c640060448201526064015b60405180910390fd5b604080518281524260208201527ffe4996cd48c364c468cee70dd6b9061874ff01b05c5ea49311cbcabd9b9cb615910160405180910390a150565b600034116101b95760405162461bcd60e51b815260206004820152601760248201527f4d75737420696e76657374206d6f7265207468616e20300000000000000000006044820152606401610125565b34600160008282546101cb9190610220565b909155505060405134815233907fc3f75dfc78f6efac88ad5abb5e606276b903647d97b2a62a1ef89840a658bbc39060200160405180910390a2565b60006020828403121561021957600080fd5b5035919050565b8082018082111561024157634e487b7160e01b600052601160045260246000fd5b9291505056fea2646970667358221220e9ccc4fde37100aab952e0221dc4510fe67772e3d143656db73ec92558f7bdef64736f6c63430008140033",
  "linkReferences": {},
  "deployedLinkReferences": {}
}